:020000040800F2
:1000000000280020850C0008290C00082F0C00088F
:10001000350C00083B0C0008410C000800000000F3
:10002000000000000000000000000000470C000875
:10003000530C0008000000005F0C00086B0C000867
:10004000CD0C0008CD0C0008CD0C0008CD0C00082C
:10005000CD0C0008CD0C0008CD0C0008CD0C00081C
:10006000CD0C0008CD0C0008CD0C0008CD0C00080C
:10007000CD0C0008CD0C0008CD0C0008CD0C0008FC
:10008000CD0C0008CD0C0008CD0C0008CD0C0008EC
:10009000CD0C0008CD0C0008CD0C0008CD0C0008DC
:1000A000CD0C0008CD0C0008CD0C0008CD0C0008CC
:1000B000CD0C0008CD0C000800000000CD0C00089D
:1000C000CD0C00080000000000000000CD0C00086E
:1000D00000000000CD0C0008CD0C0008000000005E
:1000E000CD0C0008CD0C0008CD0C0008000000006D
:1000F0000000000000000000000000000000000000
:0C01000000000000000000005FF808F1A3
:10010C0010B5054C237833B9044B13B10448AFF345
:10011C0000800123237010BD0C00002000000000A3
:10012C00F01A000808B5034B1BB103490348AFF3A1
:10013C00008008BD0000000010000020F01A00082C
:10014C0080B582B000AFC7F804C000222021084857
:10015C0001F09CF801224021054801F097F801229A
:10016C008021034801F092F800BF0837BD4680BDDE
:10017C000008014080B584B000AF07F118037B6024
:10018C0000F0A0FD00F080FC00F0BAFC0023FB6046
:10019C000023BB60FB68002B0EDBFB68042B0BDC25
:1001AC00FB68C3F105033A1D9446184600F002F9AA
:1001BC003B1D9C46FFF7C4FFFB68042B0EDDFB6860
:1001CC00072B0BDCFB68C3F108033A1D9446184659
:1001DC0000F0F0F83B1D9C4600F05EF8FB68072B26
:1001EC000EDDFB68092B0BDCFB68C3F10A033A1D1F
:1001FC009446184600F0DEF83B1D9C4600F066F86D
:10020C00BB68002B0EDBBB68022B0BDCBB68C3F19D
:10021C0003033A1D9446184600F05CFA3B1D9C46BD
:10022C0000F08CF8BB68022B0EDDBB68042B0BDCDA
:10023C00BB68C3F105033A1D9446184600F04AFA10
:10024C003B1D9C4600F098F8BB68042B0EDDBB6888
:10025C00092B0BDC3B1D9C4600F052F8BB68C3F12C
:10026C000A033A1D9446184600F034FAFB68013331
:10027C00FB60BB680133BB60FB68092B01DD00230D
:10028C00FB60BB68092B01DD0023BB604FF47A7067
:10029C0000F07AFD7EE7000080B582B000AFC7F8B1
:1002AC0004C001222021084800F0F0FF0122402167
:1002BC00054800F0EBFF00228021034800F0E6FF28
:1002CC0000BF0837BD4680BD0008014080B582B034
:1002DC0000AFC7F804C001222021084800F0D6FF67
:1002EC0000224021054800F0D1FF01228021034863
:1002FC0000F0CCFF00BF0837BD4680BD00080140B0
:10030C0080B582B000AFC7F804C000224FF48071F2
:10031C00094800F0BBFF01224FF40071064800F0C1
:10032C00B5FF01224FF48061034800F0AFFF00BF1E
:10033C000837BD4680BD00BF0008014080B582B0C3
:10034C0000AFC7F804C001224FF48071094800F0D7
:10035C009DFF01224FF40071064800F097FF002228
:10036C004FF48061034800F091FF00BF0837BD4691
:10037C0080BD00BF0008014080B582B000AFC7F857
:10038C0004C001224FF48071094800F07FFF002265
:10039C004FF40071064800F079FF01224FF48061A0
:1003AC00034800F073FF00BF0837BD4680BD00BF97
:1003BC000008014080B582B000AF7860C7F800C07B
:1003CC007B68092B00F2808101A252F823F000BF58
:1003DC00050400084D04000895040008DD0400081D
:1003EC00250500086D050008B5050008FD05000889
:1003FC00450600088D06000800220121B44800F0D3
:10040C0045FF00220221B24800F040FF00220421E7
:10041C00AF4800F03BFF00220821AD4800F036FF4A
:10042C0000221021AA4800F031FF00222021A84808
:10043C0000F02CFF01224021A54800F027FF43E1EA
:10044C0001220121A24800F021FF00220221A04834
:10045C0000F01CFF002204219D4800F017FF012230
:10046C0008219B4800F012FF01221021984800F04F
:10047C000DFF01222021964800F008FF01224021A7
:10048C00934800F003FF1FE100220121904800F087
:10049C00FDFE002202218E4800F0F8FE012204210C
:1004AC008B4800F0F3FE00220821894800F0EEFE94
:1004BC0000221021864800F0E9FE01222021844808
:1004CC0000F0E4FE00224021814800F0DFFEFBE05A
:1004DC00002201217E4800F0D9FE002202217C4836
:1004EC0000F0D4FE00220421794800F0CFFE002257
:1004FC000821774800F0CAFE01221021744800F050
:10050C00C5FE01222021724800F0C0FE00224021CD
:10051C006F4800F0BBFED7E0012201216C4800F0CF
:10052C00B5FE002202216A4800F0B0FE0022042130
:10053C00674800F0ABFE01220821654800F0A6FEDA
:10054C0001221021624800F0A1FE00222021604807
:10055C0000F09CFE002240215D4800F097FEB3E0C5
:10056C00002201215A4800F091FE01220221584834
:10057C0000F08CFE00220421554800F087FE00227A
:10058C000821534800F082FE01221021504800F04F
:10059C007DFE002220214E4800F078FE00224021F2
:1005AC004B4800F073FE8FE000220121484800F018
:1005BC006DFE01220221464800F068FE0022042153
:1005CC00434800F063FE00220821414800F05EFE23
:1005DC00002210213E4800F059FE002220213C4808
:1005EC0000F054FE00224021394800F04FFE6BE031
:1005FC0000220121364800F049FE00220221344835
:10060C0000F044FE00220421314800F03FFE01229C
:10061C0008212F4800F03AFE012210212C4800F04E
:10062C0035FE012220212A4800F030FE0122402113
:10063C00274800F02BFE47E000220121244800F05F
:10064C0025FE00220221224800F020FE0022042177
:10065C001F4800F01BFE002208211D4800F016FE6A
:10066C00002210211A4800F011FE00222021184807
:10067C0000F00CFE00224021154800F007FE23E09C
:10068C0000220121124800F001FE00220221104834
:10069C0000F0FCFD002204210D4800F0F7FD0022C3
:1006AC0008210B4800F0F2FD01221021084800F04F
:1006BC00EDFD00222021064800F0E8FD002240213B
:1006CC00034800F0E3FD00BF00BF0837BD4680BD06
:1006DC00000C014080B582B000AF7860C7F800C054
:1006EC007B68092B00F2C98101A252F823F000BFEC
:1006FC00250700087B070008D10700082708000819
:10070C007D080008D3080008290900087F090008A3
:10071C00D5090008310A000800224FF48071C04846
:10072C0000F0B4FD00224FF40071BD4800F0AEFDA6
:10073C0000224FF48061BA4800F0A8FD00224FF46B
:10074C000061B74800F0A2FD00224FF48051B4487C
:10075C0000F09CFD00224FF40051B14800F096FDD2
:10076C0001224FF48041AE4800F090FD85E101225A
:10077C004FF48071AA4800F089FD00224FF40071FB
:10078C00A74800F083FD00224FF48061A44800F0DC
:10079C007DFD01224FF40061A14800F077FD01229C
:1007AC004FF480519E4800F071FD01224FF400512E
:1007BC009B4800F06BFD01224FF48041984800F0FB
:1007CC0065FD5AE100224FF48071954800F05EFD02
:1007DC0000224FF40071924800F058FD01224FF4B2
:1007EC0080618F4800F052FD00224FF400618C486C
:1007FC0000F04CFD00224FF48051894800F046FD7A
:10080C0001224FF40051864800F040FD00224FF4C5
:10081C008041834800F03AFD2FE100224FF48071B3
:10082C007F4800F033FD00224FF400717C4800F04B
:10083C002DFD00224FF48061794800F027FD002245
:10084C004FF40061764800F021FD01224FF48051F5
:10085C00734800F01BFD01224FF40051704800F06A
:10086C0015FD00224FF480416D4800F00FFD04E1AE
:10087C0001224FF480716A4800F008FD00224FF409
:10088C000071674800F002FD00224FF4806164485B
:10089C0000F0FCFC01224FF40061614800F0F6FC12
:1008AC0001224FF480515E4800F0F0FC00224FF41E
:1008BC0000515B4800F0EAFC00224FF4804158489C
:1008CC0000F0E4FCD9E000224FF48071544800F0B1
:1008DC00DDFC01224FF40071514800F0D7FC0022DE
:1008EC004FF480614E4800F0D1FC00224FF40061BF
:1008FC004B4800F0CBFC01224FF48051484800F0EB
:10090C00C5FC00224FF40051454800F0BFFC00220A
:10091C004FF48041424800F0B9FCAEE000224FF4A5
:10092C0080713F4800F0B2FC01224FF400713C484A
:10093C0000F0ACFC00224FF48061394800F0A6FCBA
:10094C0000224FF40061364800F0A0FC00224FF466
:10095C008051334800F09AFC00224FF4005130488B
:10096C0000F094FC00224FF480412D4800F08EFCE6
:10097C0083E000224FF48071294800F087FC0022AC
:10098C004FF40071264800F081FC00224FF4806186
:10099C00234800F07BFC01224FF40061204800F05A
:1009AC0075FC01224FF480511D4800F06FFC0122B0
:1009BC004FF400511A4800F069FC01224FF48041B9
:1009CC00174800F063FC58E000224FF48071144883
:1009DC0000F05CFC00224FF40071114800F056FC52
:1009EC0000224FF480610E4800F050FC00224FF4BE
:1009FC0000610B4800F04AFC00224FF4805108487B
:100A0C0000F044FC00224FF40051054800F03EFC7D
:100A1C0000224FF48041024800F038FC2DE000BF6A
:100A2C00000C014000224FF48071164800F02EFC9F
:100A3C0000224FF40071134800F028FC00224FF400
:100A4C008061104800F022FC00224FF400610D4838
:100A5C0000F01CFC01224FF480510A4800F016FCF7
:100A6C0000224FF40051074800F010FC00224FF414
:100A7C008041044800F00AFC00BF00BF0837BD46A7
:100A8C0080BD00BF000C014080B590B000AF07F1F5
:100A9C00180328220021184601F01CF83B1D0022E7
:100AAC001A605A609A60DA601A610223BB610123F2
:100ABC00BB621023FB6200237B6307F1180318460B
:100ACC0000F0FCFB0346002B01D000F06FF80F2365
:100ADC007B600023BB600023FB6000233B61002391
:100AEC007B613B1D0021184600F068FE0346002B7D
:100AFC0001D000F05BF800BF4037BD4680BD000060
:100B0C0080B586B000AF07F1080300221A605A6066
:100B1C009A60DA60224B9B69214A43F0040393618B
:100B2C001F4B9B6903F004037B607B681C4B9B6928
:100B3C001B4A43F008039361194B9B6903F00803AC
:100B4C003B603B6800224FF4FC61164800F09EFBB2
:100B5C00002247F67F71144800F098FB4FF4FC63B9
:100B6C00BB600123FB6000233B6102237B6107F127
:100B7C00080319460B4800F00FFA47F67F73BB6069
:100B8C000123FB6000233B6102237B6107F1080317
:100B9C001946054800F000FA00BF1837BD4680BD65
:100BAC000010024000080140000C014080B400AF6E
:100BBC0072B600BFFEE7000080B485B000AF154BE5
:100BCC009B69144A43F001039361124B9B6903F038
:100BDC000103BB60BB680F4BDB690E4A43F08053CB
:100BEC00D3610C4BDB6903F080537B607B680A4B51
:100BFC005B68FB60FB6823F0E063FB60FB6843F021
:100C0C008063FB60044AFB68536000BF1437BD4629
:100C1C0080BC7047001002400000014080B400AF5F
:100C2C00FEE780B400AFFEE780B400AFFEE780B40F
:100C3C0000AFFEE780B400AFFEE780B400AF00BFAA
:100C4C00BD4680BC704780B400AF00BFBD4680BCC1
:100C5C00704780B400AF00BFBD4680BC704780B504
:100C6C0000AF00F075F800BF80BD80B400AF00BFCE
:100C7C00BD4680BC704700000C480D490D4A00234E
:100C8C0002E0D458C4500433C4188C42F9D30A4A35
:100C9C000A4C002301E013600432A242FBD3FFF79D
:100CAC00E4FF00F0F3FEFFF765FA70470000002048
:100CBC000C000020301B00080C0000202C00002031
:100CCC00FEE7000080B500AF084B1B68074A43F0F5
:100CDC0010031360032000F02BF90F2000F008F82C
:100CEC00FFF76AFF0023184680BD00BF00200240BA
:100CFC0080B582B000AF7860124B1A68124B1B782B
:100D0C0019464FF47A73B3FBF1F3B2FBF3F31846C5
:100D1C0000F035F90346002B01D001230EE07B686F
:100D2C000F2B0AD8002279684FF0FF3000F00BF936
:100D3C00064A7B681360002300E00123184608373D
:100D4C00BD4680BD000000200800002004000020EB
:100D5C0080B400AF054B1B781A46054B1B68134437
:100D6C00034A136000BFBD4680BC704708000020DA
:100D7C002800002080B400AF024B1B681846BD460B
:100D8C0080BC70472800002080B584B000AF78602C
:100D9C00FFF7F0FFB8607B68FB60FB68B3F1FF3FC7
:100DAC0005D00A4B1B781A46FB681344FB6000BF46
:100DBC00FFF7E0FF0246BB68D31AFA689A42F7D8ED
:100DCC0000BF00BF1037BD4680BD00BF080000202B
:100DDC0080B485B000AF78607B6803F00703FB60DC
:100DEC000C4BDB68BB60BA684FF6FF031340BB606B
:100DFC00FB681A02BB68134343F0BF6343F4003330
:100E0C00BB60044ABB68D36000BF1437BD4680BCCE
:100E1C00704700BF00ED00E080B400AF044BDB680E
:100E2C001B0A03F007031846BD4680BC704700BF81
:100E3C0000ED00E080B483B000AF03463960FB7175
:100E4C0097F90730002B0ADB3B68DAB20C4997F9AB
:100E5C0007301201D2B20B4483F800230AE03B683E
:100E6C00DAB20849FB7903F00F03043B1201D2B24A
:100E7C000B441A7600BF0C37BD4680BC704700BFD0
:100E8C0000E100E000ED00E080B489B000AFF86054
:100E9C00B9607A60FB6803F00703FB61FB69C3F17F
:100EAC000703042B28BF0423BB61FB690433062B07
:100EBC0002D9FB69033B00E000237B614FF0FF325A
:100ECC00BB6902FA03F3DA43BB681A407B699A40A8
:100EDC004FF0FF317B6901FA03F3D9437B680B4078
:100EEC00134318462437BD4680BC704780B582B08A
:100EFC0000AF78607B68013BB3F1807F01D30123A5
:100F0C000FE00A4A7B68013B53600F214FF0FF3022
:100F1C00FFF790FF054B00229A60044B07221A60E2
:100F2C00002318460837BD4680BD00BF10E000E026
:100F3C0080B582B000AF78607868FFF749FF00BFDA
:100F4C000837BD4680BD80B586B000AF0346B9609A
:100F5C007A60FB7300237B61FFF75EFF78617A6830
:100F6C00B9687869FFF790FF024697F90F30114680
:100F7C001846FFF75FFF00BF1837BD4680BD80B530
:100F8C0082B000AF78607868FFF7B0FF0346184670
:100F9C000837BD4680BD000080B48BB000AF7860D0
:100FAC00396000237B6200233B6248E101227B6AAB
:100FBC0002FA03F3FB613B681B68FA691340BB61DF
:100FCC00BA69FB699A4240F037813B685B68A34A77
:100FDC0093425ED0A14A934275D8A14A934258D00D
:100FEC009F4A93426FD89F4A934252D09D4A934254
:100FFC0069D89D4A93424CD09B4A934263D89B4AF2
:10100C00934246D0994A93425DD8122B2AD8122B80
:10101C0059D801A252F823F09F100008791000084B
:10102C008B100008CD100008D3100008D310000856
:10103C00D3100008D3100008D3100008D3100008F8
:10104C00D3100008D3100008D3100008D3100008E8
:10105C00D3100008D3100008D3100008811000082A
:10106C0095100008824A934213D02CE03B68DB6851
:10107C003B6229E03B68DB6804333B6224E03B685D
:10108C00DB6808333B621FE03B68DB680C333B6278
:10109C001AE03B689B68002B02D104233B6213E0EF
:1010AC003B689B68012B05D108233B627B68FA697E
:1010BC001A6109E008233B627B68FA695A6103E014
:1010CC0000233B6200E000BFBB69FF2B01D87B68AB
:1010DC0001E07B6804337B61BB69FF2B02D87B6A20
:1010EC009B0002E07B6A083B9B003B617B691A68B2
:1010FC000F213B6901FA03F3DB431A40396A3B6960
:10110C0001FA03F31A437B691A603B685B6803F0CE
:10111C008053002B00F09080564B9B69554A43F04E
:10112C0001039361534B9B6903F00103BB60BB68E4
:10113C00514A7B6A9B08023352F82330FB607B6A6E
:10114C0003F003039B000F2202FA03F3DB43FA685C
:10115C001340FB607B68494A93420DD07B68484A38
:10116C00934207D07B68474A934201D1022304E0A3
:10117C00032302E0012300E000237A6A02F0030259
:10118C0092009340FA681343FB603B497B6A9B08CF
:10119C000233FA6841F823203B685B6803F4803320
:1011AC00002B06D0384B1A683749BB6913430B60C8
:1011BC0006E0354B1A68BB69DB43334913400B60BF
:1011CC003B685B6803F40033002B06D02E4B5A6847
:1011DC002D49BB6913434B6006E02B4B5A68BB6926
:1011EC00DB43294913404B603B685B6803F4801375
:1011FC00002B06D0244B9A682349BB6913438B60A0
:10120C0006E0214B9A68BB69DB431F4913408B6096
:10121C003B685B6803F40013002B06D01A4BDA68AA
:10122C001949BB691343CB6006E0174BDA68BB69FD
:10123C00DB4315491340CB607B6A01337B623B680F
:10124C001A687B6A22FA03F3002B7FF4AFAE00BF5F
:10125C0000BF2C37BD4680BC704700BF0000321069
:10126C0000003110000022100000211000001210AC
:10127C000000111000100240000001400008014065
:10128C00000C0140001001400004014080B483B008
:10129C0000AF78600B467B8013467B707B78002B0D
:1012AC0003D07A887B681A6103E07B881A047B6818
:1012BC001A6100BF0C37BD4680BC704780B586B044
:1012CC0000AF78607B68002B01D101236CE27B6856
:1012DC001B6803F00103002B00F08780924B5B68C6
:1012EC0003F00C03042B0CD08F4B5B6803F00C0346
:1012FC00082B12D18C4B5B6803F48033B3F5803F21
:10130C000BD1894B1B6803F40033002B6CD07B682A
:10131C005B68002B68D1012346E27B685B68B3F500
:10132C00803F06D1804B1B687F4A43F480331360A7
:10133C002EE07B685B68002B0CD17B4B1B687A4AD8
:10134C0023F480331360784B1B68774A23F4802393
:10135C0013601DE07B685B68B3F5A02F0CD1724B5A
:10136C001B68714A43F4802313606F4B1B686E4AF1
:10137C0043F4803313600BE06B4B1B686A4A23F415
:10138C0080331360684B1B68674A23F48023136017
:10139C007B685B68002B13D0FFF7ECFC386108E02E
:1013AC00FFF7E8FC02463B69D31A642B01D90323EF
:1013BC00FAE15D4B1B6803F40033002BF0D014E012
:1013CC00FFF7D8FC386108E0FFF7D4FC02463B6914
:1013DC00D31A642B01D90323E6E1534B1B6803F4A6
:1013EC000033002BF0D100E000BF7B681B6803F0DA
:1013FC000203002B63D04C4B5B6803F00C03002BF7
:10140C000BD0494B5B6803F00C03082B1CD1464BEB
:10141C005B6803F48033002B16D1434B1B6803F03D
:10142C000203002B05D07B681B69012B01D0012323
:10143C00BAE13D4B1B6823F0F8027B685B69DB006B
:10144C00394913430B603AE07B681B69002B20D0B1
:10145C00364B01221A60FFF78DFC386108E0FFF76C
:10146C0089FC02463B69D31A022B01D903239BE169
:10147C002D4B1B6803F00203002BF0D02A4B1B688A
:10148C0023F0F8027B685B69DB00274913430B6090
:10149C0015E0264B00221A60FFF76CFC386108E05F
:1014AC00FFF768FC02463B69D31A022B01D90323D0
:1014BC007AE11D4B1B6803F00203002BF0D17B6813
:1014CC001B6803F00803002B3AD07B689B69002B48
:1014DC0019D0174B01221A60FFF74CFC386108E059
:1014EC00FFF748FC02463B69D31A022B01D90323B0
:1014FC005AE10D4B5B6A03F00203002BF0D0012084
:10150C0000F0A6FA1CE00A4B00221A60FFF732FC2E
:10151C0038610FE0FFF72EFC02463B69D31A022B11
:10152C0008D9032340E100BF0010024000004242F2
:10153C00800442429E4B5B6A03F00203002BE9D10C
:10154C007B681B6803F00403002B00F0A6800023CB
:10155C00FB75974BDB6903F08053002B0DD1944B3B
:10156C00DB69934A43F08053D361914BDB6903F001
:10157C008053BB60BB680123FB758E4B1B6803F467
:10158C008073002B18D18B4B1B688A4A43F48073F1
:10159C001360FFF7EFFB386108E0FFF7EBFB024647
:1015AC003B69D31A642B01D90323FDE0814B1B68E3
:1015BC0003F48073002BF0D07B68DB68012B06D121
:1015CC007B4B1B6A7A4A43F0010313622DE07B6864
:1015DC00DB68002B0CD1764B1B6A754A23F0010398
:1015EC001362734B1B6A724A23F0040313621CE0F0
:1015FC007B68DB68052B0CD16D4B1B6A6C4A43F086
:10160C00040313626A4B1B6A694A43F001031362B9
:10161C000BE0674B1B6A664A23F001031362644BB1
:10162C001B6A634A23F0040313627B68DB68002B9C
:10163C0015D0FFF79FFB38610AE0FFF79BFB0246D2
:10164C003B69D31A41F28832934201D90323ABE0B0
:10165C00574B1B6A03F00203002BEED014E0FFF78C
:10166C0089FB38610AE0FFF785FB02463B69D31A18
:10167C0041F28832934201D9032395E04C4B1B6A0B
:10168C0003F00203002BEED1FB7D012B05D1484B5F
:10169C00DB69474A23F08053D3617B68DB69002BFD
:1016AC0000F08180424B5B6803F00C03082B61D087
:1016BC007B68DB69022B46D13F4B00221A60FFF797
:1016CC0059FB386108E0FFF755FB02463B69D31A1A
:1016DC00022B01D9032367E0354B1B6803F0007321
:1016EC00002BF0D17B681B6AB3F5803F08D1304BDF
:1016FC005B6823F400327B689B682D4913434B6075
:10170C002B4B5B6823F474127B68196A7B685B6AE9
:10171C000B43274913434B60274B01221A60FFF7F9
:10172C0029FB386108E0FFF725FB02463B69D31A19
:10173C00022B01D9032337E01D4B1B6803F0007308
:10174C00002BF0D02FE01C4B00221A60FFF712FB8D
:10175C00386108E0FFF70EFB02463B69D31A022BF7
:10176C0001D9032320E0124B1B6803F00073002BFC
:10177C00F0D118E07B68DB69012B01D1012313E068
:10178C000B4B5B68FB60FB6803F480327B681B6A65
:10179C009A4206D1FB6803F470127B685B6A9A422A
:1017AC0001D0012300E0002318461837BD4680BD48
:1017BC0000100240007000406000424280B584B0CE
:1017CC0000AF786039607B68002B01D10123D0E039
:1017DC006A4B1B6803F007033A689A4210D9674BAF
:1017EC001B6823F0070265493B6813430B60634B8E
:1017FC001B6803F007033A689A4201D00123B8E052
:10180C007B681B6803F00203002B20D07B681B68ED
:10181C0003F00403002B05D0594B5B68584A43F482
:10182C00E06353607B681B6803F00803002B05D052
:10183C00534B5B68524A43F460535360504B5B68A4
:10184C0023F0F0027B689B684D4913434B607B6827
:10185C001B6803F00103002B40D07B685B68012BF5
:10186C0007D1474B1B6803F40033002B15D1012320
:10187C007FE07B685B68022B07D1414B1B6803F050
:10188C000073002B09D1012373E03D4B1B6803F05F
:10189C000203002B01D101236BE0394B5B6823F071
:1018AC0003027B685B68364913434B60FFF762FAAF
:1018BC00F8600AE0FFF75EFA0246FB68D31A41F2C1
:1018CC008832934201D9032353E02D4B5B6803F01C
:1018DC000C027B685B689B009A42EBD1274B1B6820
:1018EC0003F007033A689A4210D2244B1B6823F08A
:1018FC00070222493B6813430B60204B1B6803F023
:10190C0007033A689A4201D0012332E07B681B68D6
:10191C0003F00403002B08D0194B5B6823F4E0623E
:10192C007B68DB68164913434B607B681B6803F0CC
:10193C000803002B09D0124B5B6823F460527B68C0
:10194C001B69DB000E4913434B6000F021F8024683
:10195C000B4B5B681B0903F00F030A49CB5C22FAA3
:10196C0003F3094A1360094B1B681846FFF7C0F9CB
:10197C00002318461037BD4680BD00BF0020024032
:10198C0000100240181B000800000020040000207A
:10199C0090B48AB000AF2A4B3C1D0FCB84E80F00EB
:1019AC0040F201233B800023FB610023BB61002339
:1019BC007B6200237B6100233B62224B5B68FB61F3
:1019CC00FB6903F00C03042B02D0082B03D02DE091
:1019DC001D4B3B622DE0FB699B0C03F00F0307F1E1
:1019EC002802134413F8243C7B61FB6903F4803315
:1019FC00002B13D0134B5B685B0C03F0010307F156
:101A0C002802134413F8283CBB617B690E4A02FB85
:101A1C0003F2BB69B2FBF3F37B6204E07B690B4A14
:101A2C0002FB03F37B627B6A3B6202E0064B3B6288
:101A3C0000BF3B6A18462837BD4690BC704700BFB4
:101A4C00081B00080010024000127A0000093D003B
:101A5C0080B485B000AF78600A4B1B680A4AA2FBC1
:101A6C0003235B0A7A6802FB03F3FB6000BFFB688D
:101A7C005A1EFA60002BF9D100BF00BF1437BD46C7
:101A8C0080BC704700000020D34D621070B500265A
:101A9C000C4D0D4C641BA410A64209D100F022F889
:101AAC0000260A4D0A4C641BA410A64205D170BD39
:101ABC0055F8043B98470136EEE755F8043B984738
:101ACC000136F2E7281B0008281B0008281B000819
:101ADC002C1B000803460244934200D1704703F8C4
:101AEC00011BF9E7F8B500BFF8BC08BC9E4670476F
:0C1AFC00F8B500BFF8BC08BC9E4670475F
:101B080002030405060708090A0B0C0D0E0F101036
:101B18000000000000000000010203040607080995
:041B2800310100087F
:041B2C000D0100089F
:0C1B30000024F400100000000100000080
:0400000508000C855E
:00000001FF
